{
  "_format": "hh-sol-artifact-1",
  "contractName": "CredentialRegistry",
  "sourceName": "Contracts/CredentialRegistry.sol",
  "abi": [
    {
      "anonymous": false,
      "inputs": [
        {
          "indexed": false,
          "internalType": "bytes32",
          "name": "vcHash",
          "type": "bytes32"
        },
        {
          "indexed": false,
          "internalType": "uint256",
          "name": "expiry",
          "type": "uint256"
        }
      ],
      "name": "CredentialAnchored",
      "type": "event"
    },
    {
      "anonymous": false,
      "inputs": [
        {
          "indexed": false,
          "internalType": "bytes32",
          "name": "vcHash",
          "type": "bytes32"
        }
      ],
      "name": "CredentialRevoked",
      "type": "event"
    },
    {
      "inputs": [
        {
          "internalType": "bytes32",
          "name": "vcHash",
          "type": "bytes32"
        },
        {
          "internalType": "uint256",
          "name": "expiry",
          "type": "uint256"
        }
      ],
      "name": "anchorCredential",
      "outputs": [],
      "stateMutability": "nonpayable",
      "type": "function"
    },
    {
      "inputs": [
        {
          "internalType": "bytes32",
          "name": "",
          "type": "bytes32"
        }
      ],
      "name": "credentials",
      "outputs": [
        {
          "internalType": "uint256",
          "name": "expiry",
          "type": "uint256"
        },
        {
          "internalType": "bool",
          "name": "revoked",
          "type": "bool"
        }
      ],
      "stateMutability": "view",
      "type": "function"
    },
    {
      "inputs": [
        {
          "internalType": "bytes32",
          "name": "vcHash",
          "type": "bytes32"
        }
      ],
      "name": "isRevoked",
      "outputs": [
        {
          "internalType": "bool",
          "name": "",
          "type": "bool"
        }
      ],
      "stateMutability": "view",
      "type": "function"
    },
    {
      "inputs": [
        {
          "internalType": "bytes32",
          "name": "vcHash",
          "type": "bytes32"
        }
      ],
      "name": "revokeCredential",
      "outputs": [],
      "stateMutability": "nonpayable",
      "type": "function"
    }
  ],
  "bytecode": "0x608060405234801561001057600080fd5b506105b1806100206000396000f3fe608060405234801561001057600080fd5b506004361061004c5760003560e01c8063299d0348146100515780634294857f14610082578063ca6eec78146100b2578063de1d6dee146100ce575b600080fd5b61006b6004803603810190610066919061032e565b6100ea565b60405161007992919061038f565b60405180910390f35b61009c6004803603810190610097919061032e565b61011b565b6040516100a991906103b8565b60405180910390f35b6100cc60048036038101906100c7919061032e565b610147565b005b6100e860048036038101906100e391906103ff565b610207565b005b60006020528060005260406000206000915090508060000154908060010160009054906101000a900460ff16905082565b600080600083815260200190815260200160002060010160009054906101000a900460ff169050919050565b6000806000838152602001908152602001600020600001540361019f576040517f08c379a00000000000000000000000000000000000000000000000000000000081526004016101969061049c565b60405180910390fd5b600160008083815260200190815260200160002060010160006101000a81548160ff0219169083151502179055507f3cc2375f3fc7711ba27361cde93880f578742f9f050acee766bed662d117ba72816040516101fc91906104cb565b60405180910390a150565b6000806000848152602001908152602001600020600001541461025f576040517f08c379a000000000000000000000000000000000000000000000000000000000815260040161025690610532565b60405180910390fd5b6040518060400160405280828152602001600015158152506000808481526020019081526020016000206000820151816000015560208201518160010160006101000a81548160ff0219169083151502179055509050507fbac8669adbb074ac12bb8bbca968956212fb831621d80ac36c85babf5ae1ff7f82826040516102e7929190610552565b60405180910390a15050565b600080fd5b6000819050919050565b61030b816102f8565b811461031657600080fd5b50565b60008135905061032881610302565b92915050565b600060208284031215610344576103436102f3565b5b600061035284828501610319565b91505092915050565b6000819050919050565b61036e8161035b565b82525050565b60008115159050919050565b61038981610374565b82525050565b60006040820190506103a46000830185610365565b6103b16020830184610380565b9392505050565b60006020820190506103cd6000830184610380565b92915050565b6103dc8161035b565b81146103e757600080fd5b50565b6000813590506103f9816103d3565b92915050565b60008060408385031215610416576104156102f3565b5b600061042485828601610319565b9250506020610435858286016103ea565b9150509250929050565b600082825260208201905092915050565b7f446f6573206e6f74206578697374000000000000000000000000000000000000600082015250565b6000610486600e8361043f565b915061049182610450565b602082019050919050565b600060208201905081810360008301526104b581610479565b9050919050565b6104c5816102f8565b82525050565b60006020820190506104e060008301846104bc565b92915050565b7f416c726561647920657869737473000000000000000000000000000000000000600082015250565b600061051c600e8361043f565b9150610527826104e6565b602082019050919050565b6000602082019050818103600083015261054b8161050f565b9050919050565b600060408201905061056760008301856104bc565b6105746020830184610365565b939250505056fea26469706673582212207954283049e1b4835776cf495f3260698534f284bbe820f321ecd3a5753797a264736f6c63430008140033",
  "linkReferences": {},
  "deployedLinkReferences": {}
}